{
  "abi": [
    {
      "inputs": [],
      "stateMutability": "nonpayable",
      "type": "constructor"
    },
    {
      "anonymous": false,
      "inputs": [
        {
          "indexed": false,
          "internalType": "address",
          "name": "from",
          "type": "address"
        },
        {
          "indexed": false,
          "internalType": "uint256",
          "name": "amount",
          "type": "uint256"
        },
        {
          "indexed": false,
          "internalType": "uint256",
          "name": "ts",
          "type": "uint256"
        }
      ],
      "name": "DonationSent",
      "type": "event"
    },
    {
      "anonymous": false,
      "inputs": [
        {
          "indexed": false,
          "internalType": "string",
          "name": "chain",
          "type": "string"
        },
        {
          "indexed": false,
          "internalType": "string",
          "name": "hash",
          "type": "string"
        }
      ],
      "name": "HashPublished",
      "type": "event"
    },
    {
      "anonymous": false,
      "inputs": [
        {
          "indexed": false,
          "internalType": "address",
          "name": "oldOwner",
          "type": "address"
        },
        {
          "indexed": false,
          "internalType": "address",
          "name": "newOwner",
          "type": "address"
        }
      ],
      "name": "OwnerChanged",
      "type": "event"
    },
    {
      "inputs": [
        {
          "internalType": "string",
          "name": "",
          "type": "string"
        }
      ],
      "name": "chainToHash",
      "outputs": [
        {
          "internalType": "string",
          "name": "",
          "type": "string"
        }
      ],
      "stateMutability": "view",
      "type": "function"
    },
    {
      "inputs": [
        {
          "internalType": "address",
          "name": "newOwner",
          "type": "address"
        }
      ],
      "name": "changeOwner",
      "outputs": [
        {
          "internalType": "address",
          "name": "oldOwner",
          "type": "address"
        }
      ],
      "stateMutability": "nonpayable",
      "type": "function"
    },
    {
      "inputs": [],
      "name": "donate",
      "outputs": [],
      "stateMutability": "payable",
      "type": "function"
    },
    {
      "inputs": [],
      "name": "owner",
      "outputs": [
        {
          "internalType": "address",
          "name": "",
          "type": "address"
        }
      ],
      "stateMutability": "view",
      "type": "function"
    },
    {
      "inputs": [
        {
          "internalType": "string",
          "name": "chain",
          "type": "string"
        },
        {
          "internalType": "string",
          "name": "hash",
          "type": "string"
        }
      ],
      "name": "publishHash",
      "outputs": [],
      "stateMutability": "nonpayable",
      "type": "function"
    },
    {
      "inputs": [
        {
          "internalType": "string",
          "name": "chain",
          "type": "string"
        }
      ],
      "name": "readHash",
      "outputs": [
        {
          "internalType": "string",
          "name": "",
          "type": "string"
        }
      ],
      "stateMutability": "view",
      "type": "function"
    }
  ],
  "bytecode": {
    "object": "0x608060405234801561001057600080fd5b50600180546001600160a01b031916331790556040805160608101909152602e80825262000ad4602083013960408051661b585a5b9b995d60ca1b8152600060078201529051908190036027019020815161006e9260200190610117565b507fc89cce2e1c4073dc6c892fd1d1320b76e81c7e493f153b9a51f264d10ab2234a60006040516100ac90661b585a5b9b995d60ca1b815260070190565b9081526040519081900360200181206100c4916101ea565b60405180910390a160015460408051600081526001600160a01b0390921660208301527fb532073b38c83145e3e5135377a08bf9aab55bc0fd7c1179cd4fb995d2a5159c910160405180910390a16102b1565b828054610123906101b0565b90600052602060002090601f016020900481019282610145576000855561018b565b82601f1061015e57805160ff191683800117855561018b565b8280016001018555821561018b579182015b8281111561018b578251825591602001919060010190610170565b5061019792915061019b565b5090565b5b80821115610197576000815560010161019c565b600181811c908216806101c457607f821691505b6020821081036101e457634e487b7160e01b600052602260045260246000fd5b50919050565b6040815260076040820152661b585a5b9b995d60ca1b6060820152600060206080818401526000845481600182811c91508083168061022a57607f831692505b858310810361024757634e487b7160e01b85526022600452602485fd5b6080880183905260a088018180156102665760018114610277576102a2565b60ff198616825287820196506102a2565b60008b81526020902060005b8681101561029c57815484820152908501908901610283565b83019750505b50949998505050505050505050565b61081380620002c16000396000f3fe6080604052600436106100555760003560e01c80631fee5cd21461005a5780636705da191461007c5780638da5cb5b146100b2578063a6f9dae1146100ea578063d4aecd2c1461010a578063ed88c68e1461012a575b600080fd5b34801561006657600080fd5b5061007a610075366004610619565b610132565b005b34801561008857600080fd5b5061009c61009736600461067d565b6101fc565b6040516100a99190610716565b60405180910390f35b3480156100be57600080fd5b506001546100d2906001600160a01b031681565b6040516001600160a01b0390911681526020016100a9565b3480156100f657600080fd5b506100d2610105366004610730565b6102a1565b34801561011657600080fd5b5061009c61012536600461067d565b61035c565b61007a61040c565b6001546001600160a01b0316331461018c5760405162461bcd60e51b815260206004820152601860248201527736b9b39739b2b73232b91036bab9ba1031329037bbb732b960411b60448201526064015b60405180910390fd5b8060008360405161019d9190610759565b908152602001604051809103902090805190602001906101be9291906104dd565b507fc89cce2e1c4073dc6c892fd1d1320b76e81c7e493f153b9a51f264d10ab2234a82826040516101f0929190610775565b60405180910390a15050565b805160208183018101805160008252928201919093012091528054610220906107a3565b80601f016020809104026020016040519081016040528092919081815260200182805461024c906107a3565b80156102995780601f1061026e57610100808354040283529160200191610299565b820191906000526020600020905b81548152906001019060200180831161027c57829003601f168201915b505050505081565b6001546000906001600160a01b031633146102f95760405162461bcd60e51b815260206004820152601860248201527736b9b39739b2b73232b91036bab9ba1031329037bbb732b960411b6044820152606401610183565b50600180546001600160a01b038381166001600160a01b031983168117909355604080519190921680825260208201939093527fb532073b38c83145e3e5135377a08bf9aab55bc0fd7c1179cd4fb995d2a5159c910160405180910390a1919050565b606060008260405161036e9190610759565b90815260200160405180910390208054610387906107a3565b80601f01602080910402602001604051908101604052809291908181526020018280546103b3906107a3565b80156104005780601f106103d557610100808354040283529160200191610400565b820191906000526020600020905b8154815290600101906020018083116103e357829003601f168201915b50505050509050919050565b6001546001600160a01b03166104575760405162461bcd60e51b815260206004820152601060248201526f1bdddb995c881a5cc81b9bdd081cd95d60821b6044820152606401610183565b600154604080516001600160a01b0390921682523460208301524282820152517f8d68ee857f05464080096b8fbaa1603c09866dfccd25bb348209b1188e60add29181900360600190a16001546040516001600160a01b03909116904780156108fc02916000818181858888f193505050501580156104da573d6000803e3d6000fd5b50565b8280546104e9906107a3565b90600052602060002090601f01602090048101928261050b5760008555610551565b82601f1061052457805160ff1916838001178555610551565b82800160010185558215610551579182015b82811115610551578251825591602001919060010190610536565b5061055d929150610561565b5090565b5b8082111561055d5760008155600101610562565b634e487b7160e01b600052604160045260246000fd5b600082601f83011261059d57600080fd5b813567ffffffffffffffff808211156105b8576105b8610576565b604051601f8301601f19908116603f011681019082821181831017156105e0576105e0610576565b816040528381528660208588010111156105f957600080fd5b836020870160208301376000602085830101528094505050505092915050565b6000806040838503121561062c57600080fd5b823567ffffffffffffffff8082111561064457600080fd5b6106508683870161058c565b9350602085013591508082111561066657600080fd5b506106738582860161058c565b9150509250929050565b60006020828403121561068f57600080fd5b813567ffffffffffffffff8111156106a657600080fd5b6106b28482850161058c565b949350505050565b60005b838110156106d55781810151838201526020016106bd565b838111156106e4576000848401525b50505050565b600081518084526107028160208601602086016106ba565b601f01601f19169290920160200192915050565b60208152600061072960208301846106ea565b9392505050565b60006020828403121561074257600080fd5b81356001600160a01b038116811461072957600080fd5b6000825161076b8184602087016106ba565b9190910192915050565b60408152600061078860408301856106ea565b828103602084015261079a81856106ea565b95945050505050565b600181811c908216806107b757607f821691505b6020821081036107d757634e487b7160e01b600052602260045260246000fd5b5091905056fea2646970667358221220268a7a78765ab1b14f1c6dee58e99304931fc0d3e1930b9a38c0d6d3491c6ac164736f6c634300080e0033516d5034693669686e56726a385478376354467734615936756e677061505978444a455a3756673152534e53646d",
    "linkReferences": {}
  },
  "methodIdentifiers": {
    "chainToHash(string)": "6705da19",
    "changeOwner(address)": "a6f9dae1",
    "donate()": "ed88c68e",
    "owner()": "8da5cb5b",
    "publishHash(string,string)": "1fee5cd2",
    "readHash(string)": "d4aecd2c"
  },
  "id": 6
}